:020000040800F2
:10000000B80E00202D02000831020008330200085B
:10001000350200083702000839020008000000001D
:100020000000000000000000000000003B0200088B
:100030003D020008000000003F02000841020008E5
:10004000430200084302000843020008115D000853
:10005000430200084302000843020008430200086C
:10006000430200084302000843020008430200085C
:10007000430200084302000843020008430200084C
:10008000430200084302000843020008430200083C
:10009000430200084302000843020008430200082C
:1000A000430200084302000843020008430200081C
:1000B0004302000851620008816200084302000800
:1000C00043020008430200084302000843020008FC
:1000D00043020008D1630008430200085564000889
:1000E00043020008430200084302000843020008DC
:1000F00043020008430200084302000843020008CC
:100100004302000849600008BD620008430200087D
:1001100043020008430200084302000843020008AB
:10012000430200084302000843020008430200089B
:1001300000F002F800F06BF80AA090E8000C82448E
:100140008344AAF10107DA4501D100F060F8AFF26B
:10015000090EBAE80F0013F0010F18BFFB1A43F0A5
:1001600001031847B01F0100D01F01000A444FF0DF
:10017000000C10F8013B13F0070408BF10F8014B06
:100180001D1108BF10F8015B641E05D010F8016B4B
:10019000641E01F8016BF9D113F0080F1EBF10F8AF
:1001A000014BAD1C0C1B09D16D1E58BF01F801CBD2
:1001B000FAD505E014F8016B01F8016B6D1EF9D555
:1001C0009142D6D37047000000230024002500266A
:1001D000103A28BF78C1FBD8520728BF30C148BFAA
:1001E0000B607047642900F0BD80752900F0BA806B
:1001F000782900F01E81632900F03483732900F010
:100200003983002070471FB51FBD10B510BD00F029
:100210009DFB1146FFF7F7FF08F036FE00F0BBFB31
:1002200003B4FFF7F2FF03BC06F097FC0848004751
:10023000FEE7FEE7FEE7FEE7FEE7FEE7FEE7FEE796
:10024000FEE7FEE703480449024A044B70470000FA
:1002500031010008B80A0020B80E0020B80A0020BA
:10026000704710B54C1084EA530404D54042C1F1E4
:10027000000138BF491E1B4204D55242C3F100039E
:1002800038BF5B1E00F0F0F914F0804F04D04042FC
:10029000C1F1000138BF491E14F0004F04D0524292
:1002A000C3F1000338BF5B1E10BD00000FB404494A
:1002B00010B503AA029800F0E1FA10BC5DF814FB37
:1002C0000400002070B5044685690068C10601D5A8
:1002D000302600E02026C00707D070BDD4E90121F8
:1002E00030469047206A401C20626D1EF6D570BDD6
:1002F00070B5044685690078C00707D170BDD4E9A0
:10030000012120209047206A401C20626D1EF6D5F6
:1003100070BD70B50C460546012A05D028788006C8
:1003200000D5EA69002302E0012305E05B1C93424B
:1003300002D2E05C0028F9D1A869E618C01AA861C9
:10034000286A184428622846FFF7BCFF04E0D5E974
:10035000012114F8010B9047B442F8D32846FFF767
:10036000C7FF70BD2DE9F0410646002410687529CD
:10037000314616A510D0AFF30080002802DA4042C3
:1003800013A507E031688A0701D512A502E04907E5
:1003900004D511A5012401E0AFF3008000210A2259
:1003A00006F1240709E0B0FBF2FCB0FBF2F302FB1C
:1003B0001C00303078541846491C0028F3D12346DD
:1003C0002A463046BDE8F04100F0D0B900000000F8
:1003D0002D0000002B00000020000000F0B40D46AE
:1003E0000188090502D5214C7C4402E01F4C7C4465
:1003F0000E34002100F1240608E002F00F07120974
:10040000E75D42EA03721B097754491C52EA03076D
:10041000F3D102780023120704D5702D06D009B15C
:10042000022311342246F0BC00F0A0B9012310349D
:10043000F8E770B504460D4621461068AFF300801A
:10044000024629462046BDE870400023C6E7D21D7B
:1004500022F00703D3E90023C0E70368126843F0E2
:10046000200303600823C3610023B7E70E190100CE
:100470002DE9F05F894604464FF0000ADFF874B1B9
:10048000FB44C0F820A02046E1688847002874D0CB
:10049000252806D0D4E901219047206A401C20621B
:1004A000F1E700265F462046E16888472028054698
:1004B00007DB312D05D2781910F8200C08B106435E
:1004C000F1E7B00701D526F00406C4F81CA0002708
:1004D000C4F818A02A2D09D0284606F037FB38B3F7
:1004E00004EB8708303DC8F8185019E059F8041B90
:1004F000204604EB87029161E1688847012F054699
:1005000018D1E069002820DA26F020061DE0D8F88E
:10051000180000EB800005EB40003038C8F81800E8
:100520002046E1688847054606F010FB0028EED11A
:10053000012F0AD02E2D08D12046E16888477F1C64
:100540000546022F46F02006C4DBA069002803DA26
:10055000404246F00106A061F00701D026F01006E7
:100560006C2D0BD0682D09D04C2D39D06A2D35D08B
:10057000742D35D07A2D33D016E038E0E1682F465F
:1005800020468847B842054609D16C2F26D04FF443
:100590008060E168064320468847054604E06C2FEA
:1005A0001AD04FF4807006430DB3A5F1410019280D
:1005B00002D8203546F400664A4629462046266081
:1005C0004E46FFF70FFE80B101280BD0F61D26F036
:1005D000070000F1080956E74020E4E78020D8E74B
:1005E0000020D6E706F104094DE7284652E7206AC5
:1005F000BDE8F09F9E18010040EA010310B59B077B
:100600000FD1042A0DD310C808C9121F9C42F8D07C
:1006100020BA19BA884201D9012010BD4FF0FF302D
:1006200010BD1AB1D30703D0521C07E0002010BD43
:1006300010F8013B11F8014B1B1B07D110F8013BCF
:1006400011F8014B1B1B01D1921EF1D1184610BDB0
:1006500002F0FF0343EA032242EA024200F022B919
:10066000704770477047704753EA020C00F069808A
:100670002DE9F04B4FF00006002B1FBFB3FA83F5B6
:1006800003FA05F424FA05F65E4012BF1643B2FAE7
:1006900082F502FA05F4C5F120051EBF22FA05FC19
:1006A00044EA0C04203556EA044C4FEA144418BFBF
:1006B000641C4FF000084FF00009904271EB030CEE
:1006C00039D3002919BFB1FA81F701FA07F6B0FA58
:1006D00080F700FA07F6C7F120071EBF20FA07FCD3
:1006E00046EA0C062037B6FBF4FCA7EB0507103FE3
:1006F00007F01F0BCBF120060CFA0BFB2CFA06F6C9
:1007000044BFB3460026202FA4BF5E464FF0000B27
:100710005BEA060C08BF4FF0010B19EB0B09ABFBB2
:10072000027C48EB0608C01B06FB02CC0BFB03CC8B
:1007300071EB0C01C1E70B46024641464846BDE855
:10074000F08B13B54FF000004FF00001AFF30080C5
:10075000BDE81C40704710B500F0C4F8006810BD3B
:1007600010B5044600F0BEF8046010BD2DE9F04756
:100770000D4699469246044600F124080168880611
:1007800004D5E06921F01001216000E00120A842B9
:1007900001DD471B00E00027A1697A1902EB09007F
:1007A000081AA0612078C00602D42046FFF78AFD0F
:1007B000002608E0D4E901211AF806009047206AD3
:1007C000401C761C20624E45F4DB2078C0060AD51A
:1007D0002046FFF777FD06E0D4E90121302090475D
:1007E000206A401C2062381EA7F10107F4DC07E0F4
:1007F000D4E9012118F805009047206A401C2062C6
:10080000281EA5F10105F3DC2046FFF771FD2078D5
:10081000000602D50220BDE8F0870120FBE70000BA
:1008200001694A1C02610878704700B58FB0CDE9B4
:1008300001310021059105497944CDE903101146A4
:100840006846FFF715FE0FB000BD0000E5FFFFFF93
:1008500010B5436913B1AFF3008001E0FFF759FD14
:10086000012010BD127800F124010A7000224A70A4
:100870000122EDE711684FF0FF32E9E7074B70B551
:100880000D467B44FFF7D1FF0446284600F02EF8C2
:1008900010B14FF0FF3070BD204670BDB37700003F
:1008A0004FF000020429C0F0128010F0030C00F099
:1008B0002380CCF1040CBCF1020F18BF00F8012B0F
:1008C000A8BF20F8022BA1EB0C0100F015B85FEADD
:1008D000C17C24BF00F8012B00F8012B48BF00F8B1
:1008E000012B704700487047580A0020007B00F039
:1008F000800070474FF0000200B5134694469646BC
:10090000203922BFA0E80C50A0E80C50B1F1200122
:10091000BFF4F7AF090728BFA0E80C5048BF0CC0D0
:100920005DF804EB890028BF40F8042B08BF70472E
:1009300048BF20F8022B11F0804F18BF00F8012BA0
:100940007047000000487047580A00207546FFF7BE
:10095000F9FFAE4605006946534620F0070085467C
:1009600018B020B5FFF76EFCBDE820404FF0000640
:100970004FF000074FF000084FF0000B21F0070187
:10098000AC46ACE8C009ACE8C009ACE8C009ACE8CA
:10099000C0098D4670470446AFF300802046FFF73C
:1009A0003FFC0000024605E01348416B01F04500A2
:1009B00000B100E0F8E700BF01F0040020B104201E
:1009C0000D4B98630320704701F0010018B101201E
:1009D000094B9863F7E708480069904201D010205E
:1009E000F1E740F2FF50044B986318464069082332
:1009F0001840C0B2E7E70000008001401CB50920A4
:100A000005F0DEFBA04948200CF00AFA482006F069
:100A100083FC9E4841684820884704F0D3FC00F0DE
:100A20000FFD00F0DDF904F0D7FE002000F060FAC1
:100A30004FF6FF7000F05CFA0020954908804FF4F3
:100A4000EF7340F21E320121084600F0D1FB4FF453
:100A5000EF73EF220121104600F060FB06236E22A7
:100A6000782140F28B1007F03BFE06236E2278219E
:100A700040F27D2007F034FE06235A2291004FF405
:100A8000A77007F02DFE06235A22910040F207209E
:100A900007F026FE06235A2291004FF4307007F02B
:100AA0001FFE01217BA00AF0F3F901217CA00AF0CE
:100AB000EFF90BE000217EA00AF0EAF94FF448704C
:100AC00006F04AFC00217EA00AF0E2F905F068F980
:100AD0000028EFD1012179A00AF0DAF97CA01021D9
:100AE0000B46C822CDE9001011461E2004F0BAFBC7
:100AF0007BA010210B46C822CDE90010DC211E206E
:100B000004F0B0FB7BA010210B46C822CDE90010F9
:100B1000F0211E2004F0A6FB7BA010210B46C8226A
:100B2000CDE900104FF482711E2004F09BFB7BA0E6
:100B300010210B46C822CDE9001040F2C71140F247
:100B40001D1004F08FFB79A010210B46C822CDE9BF
:100B5000001040F2C7114FF4EB7004F083FB77A054
:100B600010210B46C822CDE9001040F2C71140F217
:100B70008F2004F077FB75A010210B46C822CDE929
:100B800000104FF4B9711E2004F06CFB73A010210B
:100B90000B46C822CDE900104FF4CB711E2004F0A3
:100BA00061FB4FF4FC600421782340F28B12CDE905
:100BB0000010194640F2271007F0E4F96A480421B2
:100BC000782340F2EF12CDE90010194640F28B1065
:100BD00007F0D8F94FF4FC600421DC2340F28B12BB
:100BE000CDE900101421104607F0CCF94FF4FC6059
:100BF0000421782340F2E122CDE90010194640F2A9
:100C0000192007F0BFF94FF4FC600421DC2340F207
:100C10007D22CDE900101421104607F0B3F953A04E
:100C200010210B460A46CDE9001070214FF4877061
:100C300004F018FB4DA010210B460A46CDE9001028
:100C4000E92140F2871004F00DFB4FF47840104981
:100C5000088046A010210B460A46CDE900107B21F2
:100C600040F2BD1004F0FEFA41A010210B460A46E6
:100C7000CDE9001070214FF4FE7004F0F3FA00206B
:100C8000034908801CBD000020A10700F0000020DF
:100C90000A00002050616E6461726F6C6C0000008D
:100CA0004D50553630353020544553540000000027
:100CB000525443204552524F522120202000000020
:100CC00052544320547279696E672E2E2E00000014
:100CD0002054656D703A202020202E204300000013
:100CE00020616378203A2020202E20206D2F73323F
:100CF0000000000020616379203A2020202E20206F
:100D00006D2F7332000000002061637A203A2020AA
:100D1000202E20206D2F73320000000020526F6CB7
:100D20006C3A202020202E2043000000506974637C
:100D3000683A202020202E204300000020596177AF
:100D4000203A202020202E204300000020202020B8
:100D50002D20202D202020202000000020203A20BF
:100D6000203A20200000000000F8FFFF670000008C
:100D7000326700000146CA1701EB92729210A1EB94
:100D8000820292B9642091FBF0F200FB121050B97C
:100D90004FF4C87091FBF0F200FB121008B901206B
:100DA00070470020FCE70120FAE70020F8E7000088
:100DB00001464906084A926942F00102064B9A61CF
:100DC000064A526822F0E062044B5A601A465268A2
:100DD0000A435A60704700000010024000000140C2
:100DE0001548806940F0040013498861084680690D
:100DF00040F0400088611148006820F00F000F4962
:100E000008600846006840F0080008600C48006868
:100E10000C4908400A490860084600680A49084326
:100E20000749086006480C30006840F01C0004497F
:100E30000C310860704700000010024000080140BB
:100E400000180140FF00F0FF0088080010B50446BC
:100E500014B10120234908702248007858B3224871
:100E6000006858B12048001F006838B11E48083893
:100E7000006818B11D48006801281CD10A2006F03E
:100E80006BFA0020174908701748006808B901205C
:100E900010BD1548001F006808B90220F8E7124885
:100EA0000838006808B90320F2E7104800680128F4
:100EB00015D10420ECE70C48006801280FD10A483E
:100EC000001F006801280AD1074808380068012877
:100ED00005D10648006810B90120024908700020B9
:100EE000D6E7000038000020100123420001214213
:100EF00070B50446002617480588408845431548C4
:100F0000808846F60401884216D11248807901286B
:100F100012D100200F4988712A2048812B20888116
:100F20000021084604F036F801200A4988712B2078
:100F300048812A20888103E00021084604F02AF82D
:100F400004F02EFA002602E003480480761CAE422C
:100F5000FAD370BDAC0200200008006C10B5044646
:100F6000002C66D16C498871F02008804FF4A07085
:100F700048800846808849F2413188420BD0664853
:100F8000808846F60401884205D06348808845F28F
:100F9000103188421AD12C205F4908812A204881CB
:100FA0002B2088810846808846F60401884205D0B7
:100FB0005948808845F21031884206D14FF4A0701C
:100FC000554908804FF4F0704880A1E0524880886D
:100FD00045F21051884210D14FF430504E490881EB
:100FE0004FF4285048814FF42C5088814FF4F07012
:100FF00008804FF4487048808AE04748808841F66E
:10100000631188420DD12C20434908812B2048814F
:101010002A2088814FF4F07008804FF4487048808F
:1010200076E022203C4908812020488121208881C7
:101030006EE00120384988714FF4A0700880F020DC
:1010400048800846808849F24131884205D03248BC
:10105000808845F21031884207D12C202E49088122
:101060002A2048812B2088813FE02B48808846F643
:101070000401884207D12C20274908812B20488170
:101080002A20888131E02448808845F21051884226
:1010900010D14FF43050204908814FF42850488136
:1010A0004FF42C5088814FF4487008804FF4F07052
:1010B00048801AE01848808841F6631188420DD1B3
:1010C0002C20154908812A2048812B2088814FF443
:1010D000487008804FF4F070488006E022200E49E6
:1010E000088121204881202088810B48808846F68D
:1010F0000401884205D00848808845F210318842B2
:1011000006D14FF4F070044908804FF4A070488075
:10111000002003F0C9FD10BDAC0200202DE9FF4FF7
:1011200084B081468A460020039002900698A0EB86
:1011300009050798A0EB0A06CDF80490CDF800A0A9
:10114000002D01DD012705E00DB9002702E04FF079
:10115000FF376D42002E02DD4FF0010806E016B9A0
:101160004FF0000802E04FF0FF387642B54201DD53
:101170002C4600E034464FF0000B21E0009A91B27B
:10118000019A90B200F022F8039828440390029844
:10119000304402900398A04205DD0398001B0390A1
:1011A0000198384401900298A04205DD0298001B86
:1011B00002900098404400900BF101001FFA80FB60
:1011C000601C8345DADD08B0BDE8F08F30B5044619
:1011D0000D462946204603F0DDFE04F0E1F8024802
:1011E00000880249088030BD0A0000200008006C19
:1011F000F0B504460D4616461F462B463246294694
:101200002046FFF78BFF3B46224629462046FFF744
:1012100085FF3B46324639462046FFF77FFF3B4677
:10122000324629463046FFF779FFF0BD2DE9F043FD
:1012300006460F469046002445460320A0EB480989
:101240003CE07A1B91B2321990B2FFF7BFFF3A1B14
:1012500091B2721990B2FFF7B9FF3A1991B27219AF
:1012600090B2FFF7B3FF7A1991B2321990B2FFF73B
:10127000ADFF7A1991B2321B90B2FFF7A7FF3A196E
:1012800091B2721B90B2FFF7A1FF7A1B91B2321B91
:1012900090B2FFF79BFF3A1B91B2721B90B2FFF71F
:1012A00095FF641CB9F1000F03DAA000801D814492
:1012B00004E0601B80000A3081446D1EAC42C0DD3A
:1012C000BDE8F08330B503460C4615465A48808881
:1012D00049F24131884205D05748808845F21031A3
:1012E000884214D15449488904F054F8181204F083
:1012F0004BF8D8B204F048F84F49888904F04AF80E
:10130000201204F041F8E0B204F03EF88CE04A48C4
:10131000808845F21051884220D14749488904F01D
:1013200039F8181204F030F843494989491C88B249
:1013300004F030F8D8B204F027F83F49888904F067
:1013400029F8201204F020F83B498989491C88B209
:1013500004F020F8E0B204F017F865E03648808821
:1013600041F66311884228D13348807920B9324848
:101370000088401EC01A83B22F49488904F00AF839
:10138000181204F001F8D8B203F0FEFF181203F0AF
:10139000FBFFD8B203F0F8FF2749888903F0FAFF72
:1013A000201203F0F1FFE0B203F0EEFF201203F091
:1013B000EBFFE0B203F0E8FF36E01F48808846F616
:1013C000040188421DD11C488079012804D11A48A3
:1013D0000088401EC01A83B21749488903F0DAFF1B
:1013E000181203F0D1FFD8B203F0CEFF124988895A
:1013F00003F0D0FF201203F0C7FFE0B203F0C4FFF8
:1014000012E00D488079012804D10B480088401E65
:10141000C01A83B208494889194603F0CBFF064930
:101420008889214603F0C6FF0348008903490880E4
:10143000881C058030BD0000AC020020FE07006C57
:1014400010B5FD48406940F48070FB49486108468A
:10145000806940F0080088610846806940F02000FB
:1014600088610846806940F04000886108468069CC
:1014700040F480708861F148006820F00F00EF4967
:1014800008600846006840F003000860EC48006807
:10149000EC490840EA49086008460068EA49084300
:1014A000E7490860081F006800F0FF20091F086076
:1014B0000846006840F0BB100860E448006800205F
:1014C000E24908600846006840F0BB300860081F29
:1014D000006820F07040091F08600846006840F06E
:1014E00030400860DA48406820F47020D8494860ED
:1014F0000846406840F4302048600846006820F004
:101500000F0008600846006840F00B0008600020EB
:101510004FF020418861C861CE4908604FF02040FB
:10152000806940F480504FF020418861084680690E
:1015300040F4804088610846806940F0100088616E
:101540000846C069C8610846C06940F00100C8612A
:101550000846C06940F47060C861BE480068C1F8C0
:101560001C01BC480068C1F81C010846D0F81C01E9
:1015700040F44070C1F81C010846806940F0010049
:101580008861322005F0E8FE002003F057FBB249E5
:10159000888008468088FF280ADB084680884FF646
:1015A000FF71884204D0AC488088B0F5134F7CD1DD
:1015B000D32003F0EFFE03F037FBA749888003F048
:1015C00033FBA549888003F02FFBA3498880084698
:1015D00080884FF6FF7101EA00209F49888003F060
:1015E00023FB9D49898808439B4988800846808859
:1015F00049F24131884258D0BF2003F0CBFE03F0BE
:1016000013FB9549888003F00FFB9349888003F012
:101610000BFB9149888003F007FB8F4988800846BF
:1016200080884FF6FF7101EA00208B49888003F023
:10163000FBFA894989880843874988800846808859
:1016400046F6040188427AD0D42003F0A3FE03F0CA
:10165000EBFA8149888003F0E7FA7F49888003F03C
:10166000E3FA7D498880084680884FF6FF7101EAD9
:1016700000207949888003F0D7FA774989880843A0
:10168000754988800846808845F21031884256D0D6
:101690004FF45A4003F07EFE03F0C6FA6E4988808C
:1016A0004FF45B4003F076FE00E048E003F0BCFA44
:1016B00069498880084680884FF6FF7101EA00205A
:1016C000654988804FF45C4003F064FE03F0ACFA97
:1016D0006149898808436049888008468088B0F558
:1016E000004F02D145F2105088805B48808845F257
:1016F0001051884223D0A12003F04CFE03F094FA4D
:101700005549888003F090FA5349888008468088BC
:101710004FF6FF7101EA00204F49888003F084FAF8
:101720004D49898808434C4988800846808845F29D
:101730006171884203D141F6631047498880464869
:10174000818846A0FEF7B2FD4348808849F24131C6
:10175000884270D1CF2003F01DFE002003F014FE5C
:10176000C12003F011FE302003F00EFEED2003F047
:1017700011FE642003F008FE032003F005FE122092
:1017800003F002FE812003F0FFFDE82003F002FEDB
:10179000852003F0F9FD102003F0F6FD7A2003F018
:1017A000F3FDCB2003F0F6FD392003F0EDFD2C20F6
:1017B00003F0EAFD002003F0E7FD342003F0E4FD30
:1017C000022003F0E1FDF72003F0E4FD202003F008
:1017D000DBFDEA2003F0DEFD002003F0D5FD002054
:1017E00003F0D2FDC02003F0D5FD1B2003F0CCFD9B
:1017F000C12003F0CFFD012003F0C6FDC52003F09A
:10180000C9FD302003F0C0FD302003F0BDFDC7202E
:1018100003F0C0FDB72003F0B7FD362003F0BAFD9A
:10182000482003F0B1FD3A2003F0B4FD552003F049
:10183000ABFDB1201AE0BFE000100240000C0140F7
:101840000414014000F0FF00BB0B00BB0418014072
:10185000002001401C0100A0AC020020204C4344A9
:101860002049443A25780D0A0000000003F092FD5B
:10187000002003F089FD1A2003F086FDB62003F056
:1018800089FD0A2003F080FDA22003F07DFDF220F7
:1018900003F080FD002003F077FD262003F07AFDA1
:1018A000012003F071FDE02003F074FD0F2003F030
:1018B0006BFD2A2003F068FD282003F065FD082059
:1018C00003F062FD0E2003F05FFD082003F05CFDD5
:1018D000542003F059FDA92003F056FD432003F0E6
:1018E00053FD0A2003F050FD0F2003F04DFD0020B2
:1018F00003F04AFD002003F047FD002003F044FD03
:10190000002003F041FDE12003F044FD002003F03E
:101910003BFD152003F038FD172003F035FD0720AF
:1019200003F032FD112003F02FFD062003F02CFD03
:101930002B2003F029FD562003F026FD3C2003F068
:1019400023FD052003F020FD102003F01DFD0F20D6
:1019500003F01AFD3F2003F017FD3F2003F014FDB4
:101960000F2003F011FD2B2003F014FD002003F0E5
:101970000BFD002003F008FD012003F005FD3F20D2
:1019800003F002FD2A2003F005FD002003F0FCFC1B
:10199000002003F0F9FC002003F0F6FCEF2003F038
:1019A000F3FC112003F0F6FC782005F0D5FC29208B
:1019B00003F0F0FC03F01DB9FE48808846F60401F0
:1019C00088427CD1112003F0E5FC142005F0C4FC12
:1019D000D02003F0DFFC072003F0D6FC422003F008
:1019E000D3FC1D2003F0D0FCD12003F0D3FC002059
:1019F00003F0CAFC1A2003F0C7FC092003F0C4FC62
:101A0000D22003F0C7FC012003F0BEFC222003F02B
:101A1000BBFCC02003F0BEFC102003F0B5FC3B2053
:101A200003F0B2FC002003F0AFFC022003F0ACFC9A
:101A3000112003F0A9FCC52003F0ACFC032003F047
:101A4000A3FCC82003F0A6FC002003F09DFC252089
:101A500003F09AFC212003F097FC052003F094FC8E
:101A6000002003F091FC0A2003F08EFC652003F0B7
:101A70008BFC252003F088FC772003F085FC5020A8
:101A800003F082FC0F2003F07FFC002003F07CFCBD
:101A9000F82003F07FFC012003F076FCFE2003F029
:101AA00079FC002003F070FC022003F06DFC202084
:101AB00003F070FC362003F06DFC082000E02CE001
:101AC00003F062FC3A2003F065FC552003F05CFC57
:101AD0002B2003F05FFC002003F056FC002003F0F5
:101AE00053FC012003F050FC3F2003F04DFC2A2062
:101AF00003F050FC002003F047FC002003F044FCFE
:101B0000012003F041FCDF2003F03EFC782005F0CB
:101B100023FC292003F03EFC4CE7A648808845F2D0
:101B20001031884240F07C87ED2003F033FC012027
:101B300003F02AFCFE2003F027FCEE2003F02AFC31
:101B4000DE2003F021FC212003F01EFCF12003F035
:101B500021FC012003F018FCDF2003F01BFC102007
:101B600003F012FCC42003F015FC8F2003F00CFCE2
:101B7000C62003F00FFC002003F006FCE22003F077
:101B800003FCE22003F000FCE22003F0FDFBBF2099
:101B900003F000FCAA2003F0F7FBB02003F0FAFBEF
:101BA0000D2003F0F1FB002003F0EEFB0D2003F00D
:101BB000EBFB002003F0E8FB112003F0E5FB002025
:101BC00003F0E2FB192003F0DFFB002003F0DCFB55
:101BD000212003F0D9FB002003F0D6FB2D2003F0D9
:101BE000D3FB002003F0D0FB3D2003F0CDFB002011
:101BF00003F0CAFB5D2003F0C7FB002003F0C4FB29
:101C00005D2003F0C1FB002003F0BEFBB12003F018
:101C1000C1FB802003F0B8FB002003F0B5FB8B2054
:101C200003F0B2FB002003F0AFFB962003F0ACFB07
:101C3000002003F0A9FBB22003F0ACFB002003F06E
:101C4000A3FB002003F0A0FB022003F09DFB00207B
:101C500003F09AFB032003F097FB002003F094FBB2
:101C6000B32003F097FB002003F08EFB002003F06D
:101C70008BFB002003F088FB002003F085FB002095
:101C800003F082FB002003F07FFB002003F07CFBCD
:101C9000002003F079FB002003F076FB002003F026
:101CA00073FB002003F070FB002003F06DFB0020AD
:101CB00003F06AFB002003F067FB002003F064FBE5
:101CC000002003F061FB002003F05EFB002003F026
:101CD0005BFB002003F058FB002003F055FB0020C5
:101CE00003F052FB002003F04FFB002003F04CFBFD
:101CF000002003F049FBB42003F04CFB8B2003F0E1
:101D000043FB002003F040FB962003F03DFB002046
:101D100003F03AFBA12003F037FB002003F034FB73
:101D2000B52003F037FB022003F02EFB002003F068
:101D30002BFB032003F028FB002003F025FB0420ED
:101D400003F022FB002003F01FFBB62003F022FB70
:101D5000002003F019FB002003F016FBB72003F06E
:101D600019FB002003F010FB002003F00DFB3F20C7
:101D700003F00AFB002003F007FB5E2003F004FBE6
:101D8000002003F001FB642003F0FEFA002003F0C2
:101D9000FBFA8C2003F0F8FA002003F0F5FAAC20EF
:101DA00003F0F2FA002003F0EFFADC2003F0ECFA83
:101DB000002001E0AC02002003F0E6FA702003F0FE
:101DC000E3FA002003F0E0FA902003F0DDFA0020AF
:101DD00003F0DAFAEB2003F0D7FA002003F0D4FA8C
:101DE000DC2003F0D1FA002003F0CEFAB82003F093
:101DF000D1FA002003F0C8FA002003F0C5FA002051
:101E000003F0C2FA002003F0BFFA002003F0BCFA8E
:101E1000002003F0B9FA002003F0B6FA002003F026
:101E2000B3FABA2003F0B6FA242003F0ADFA00208A
:101E300003F0AAFA002003F0A7FA002003F0A4FAA6
:101E4000C12003F0A7FA202003F09EFA002003F03F
:101E50009BFA542003F098FA002003F095FAFF2033
:101E600003F092FA002003F08FFAC22003F092FAF6
:101E70000A2003F089FA002003F086FA042003F018
:101E800083FA002003F080FAC32003F083FA3C2099
:101E900003F07AFA002003F077FA3A2003F074FA9C
:101EA000002003F071FA392003F06EFA002003F0ED
:101EB0006BFA372003F068FA002003F065FA3C2043
:101EC00003F062FA002003F05FFA362003F05CFAB8
:101ED000002003F059FA322003F056FA002003F0F4
:101EE00053FA2F2003F050FA002003F04DFA2C2073
:101EF00003F04AFA002003F047FA292003F044FADD
:101F0000002003F041FA262003F03EFA002003F0FF
:101F10003BFA242003F038FA002003F035FA24209D
:101F200003F032FA002003F02FFA232003F02CFAFA
:101F3000002003F029FA3C2003F026FA002003F0E9
:101F400023FA362003F020FA002003F01DFA322095
:101F500003F01AFA002003F017FA2F2003F014FA06
:101F6000002003F011FA2C2003F00EFA002003F0F9
:101F70000BFA292003F008FA002003F005FA2620C6
:101F800003F002FA002003F0FFF9242003F0FCF92B
:101F9000002003F0F9F9242003F0F6F9002003F003
:101FA000F3F9232003F0F0F9002003F0EDF9C42049
:101FB00003F0F0F9622003F0E7F9002003F0E4F900
:101FC000052003F0E1F9002003F0DEF9842003F09E
:101FD000DBF9002003F0D8F9F02003F0D5F9002058
:101FE00003F0D2F9182003F0CFF9002003F0CCF968
:101FF000A42003F0C9F9002003F0C6F9182003F06B
:10200000C3F9002003F0C0F9502003F0BDF900200F
:1020100003F0BAF90C2003F0B7F9002003F0B4F98B
:10202000172003F0B1F9002003F0AEF9952003F07A
:10203000ABF9002003F0A8F9F32003F0A5F9002084
:1020400003F0A2F9E62003F09FF9002003F09CF9C9
:10205000C52003F09FF9322003F096F9002003F029
:1020600093F9442003F090F9002003F08DF96520E6
:1020700003F08AF9002003F087F9762003F084F951
:10208000002003F081F9882003F07EF9002003F09E
:102090007BF9C62003F07EF9202003F075F90020BB
:1020A00003F072F9172003F06FF9002003F06CF9C8
:1020B000012003F069F9002003F066F9C72003F05E
:1020C00069F9002003F060F9002003F05DF90020B9
:1020D00003F05AF9002003F057F9C82003F05AF929
:1020E000002003F051F9002003F04EF9002003F026
:1020F0004BF9002003F048F9C92003F04BF9002008
:1021000003F042F9002003F03FF9002003F03CF90E
:10211000002003F039F9002003F036F9002003F025
:1021200033F9002003F030F9002003F02DF90020EE
:1021300003F02AF9002003F027F9002003F024F926
:10214000002003F021F9002003F01EF9002003F025
:102150001BF9002003F018F9002003F015F9E02026
:1021600003F018F9162003F00FF9002003F00CF922
:102170001C2003F009F9002003F006F9212003F0E8
:1021800003F9002003F000F9362003F0FDF80020E9
:1021900003F0FAF8462003F0F7F8002003F0F4F813
:1021A000522003F0F1F8002003F0EEF8642003F071
:1021B000EBF8002003F0E8F87A2003F0E5F80020BF
:1021C00003F0E2F88B2003F0DFF8002003F0DCF8E6
:1021D000992003F0D9F8002003F0D6F8A82003F0E6
:1021E000D3F8002003F0D0F8B92003F0CDF8002098
:1021F00003F0CAF8C42003F0C7F8002003F0C4F8C5
:10220000CA2003F0C1F8002003F0BEF8D22003F08A
:10221000BBF8002003F0B8F8D92003F0B5F800208F
:1022200003F0B2F8E02003F0AFF8002003F0ACF8C0
:10223000F32003F0A9F8002003F0A6F8E12003F052
:10224000A9F8162003F0A0F8002003F09DF81C2048
:1022500003F09AF8002003F097F8222003F094F896
:10226000002003F091F8362003F08EF8002003F0F0
:102270008BF8452003F088F8002003F085F8522001
:1022800003F082F8002003F07FF8642003F07CF86C
:10229000002003F079F87A2003F076F8002003F0AC
:1022A00073F88B2003F070F8002003F06DF899208C
:1022B00003F06AF8002003F067F8A82003F064F840
:1022C000002003F061F8B92003F05EF8002003F06D
:1022D0005BF8C42003F058F8002003F055F8CA203A
:1022E00003F052F8002003F04FF8D22003F04CF82E
:1022F000002003F049F8D82003F046F8002003F04E
:1023000043F8E02003F040F8002003F03DF8F3200C
:1023100003F03AF8002003F037F8E22003F03AF82F
:10232000052003F031F8002003F02EF80B2003F015
:102330002BF8002003F028F81B2003F025F80020DC
:1023400003F022F8342003F01FF8002003F01CF8FB
:10235000442003F019F8002003F016F84F2003F092
:1023600013F8002003F010F8612003F00DF80020AE
:1023700003F00AF8792003F007F8002003F004F8CE
:10238000882003F001F8002002F0FEFF972002F001
:10239000FBFF002002F0F8FFA62002F0F5FF00206E
:1023A00002F0F2FFB72002F0EFFF002002F0ECFF96
:1023B000C22002F0E9FF002002F0E6FFC72002F091
:1023C000E3FF002002F0E0FFD12002F0DDFF00205B
:1023D00002F0DAFFD62002F0D7FF002002F0D4FF8F
:1023E000DD2002F0D1FF002002F0CEFFF32002F04A
:1023F000CBFF002002F0C8FFE32002F0CBFF052056
:1024000002F0C2FF002002F0BFFF0A2002F0BCFF72
:10241000002002F0B9FF1C2002F0B6FF002002F0FD
:10242000B3FF332002F0B0FF002002F0ADFF4420E4
:1024300002F0AAFF002002F0A7FF502002F0A4FF44
:10244000002002F0A1FF622002F09EFF002002F0B7
:102450009BFF782002F098FF002002F095FF882073
:1024600002F092FF002002F08FFF972002F08CFF15
:10247000002002F089FFA62002F086FF002002F073
:1024800083FFB72002F080FF002002F07DFFC22012
:1024900002F07AFF002002F077FFC72002F074FFFD
:1024A000002002F071FFD12002F06EFF002002F048
:1024B0006BFFD52002F068FF002002F065FFDD20F1
:1024C00002F062FF002002F05FFFF32002F05CFFE9
:1024D000002002F059FFE42002F05CFF012002F02E
:1024E00053FF002002F050FF012002F04DFF0020BA
:1024F00002F04AFF022002F047FF002002F044FFF2
:102500002A2002F041FF002002F03EFF3C2002F0B2
:102510003BFF002002F038FF4B2002F035FF002087
:1025200002F032FF5D2002F02FFF002002F02CFFAE
:10253000742002F029FF002002F026FF842002F020
:1025400023FF002002F020FF932002F01DFF002057
:1025500002F01AFFA22002F017FF002002F014FF81
:10256000B32002F011FF002002F00EFFBE2002F0A7
:102570000BFF002002F008FFC42002F005FF00203E
:1025800002F002FFCD2002F0FFFE002002F0FCFE70
:10259000D32002F0F9FE002002F0F6FEDD2002F06A
:1025A000F3FE002002F0F0FEF32002F0EDFE00202A
:1025B00002F0EAFEE52002F0EDFE002002F0E4FE6B
:1025C000002002F0E1FE002002F0DEFE002002F01A
:1025D000DBFE022002F0D8FE002002F0D5FE29200A
:1025E00002F0D2FE002002F0CFFE3C2002F0CCFE32
:1025F000002002F0C9FE4B2002F0C6FE002002F0CF
:10260000C3FE5D2002F0C0FE002002F0BDFE74207B
:1026100002F0BAFE002002F0B7FE842002F0B4FE01
:10262000002002F0B1FE932002F0AEFE002002F086
:10263000ABFEA22002F0A8FE002002F0A5FEB3200F
:1026400002F0A2FE002002F09FFEBE2002F09CFEDF
:10265000002002F099FEC42002F096FE002002F055
:1026600093FECD2002F090FE002002F08DFED320DC
:1026700002F08AFE002002F087FEDC2002F084FED9
:10268000002002F081FEF32002F07EFE002002F026
:102690007BFEE62002F07EFE112002F075FE002097
:1026A00002F072FE342002F06FFE002002F06CFE99
:1026B000562002F069FE002002F066FE762002F04D
:1026C00063FE002002F060FE772002F05DFE002035
:1026D00002F05AFE662002F057FE002002F054FE7F
:1026E000882002F051FE002002F04EFE992002F0F8
:1026F0004BFE002002F048FEBB2002F045FE002009
:1027000002F042FE992002F03FFE002002F03CFE63
:10271000662002F039FE002002F036FE552002F05D
:1027200033FE002002F030FE552002F02DFE002086
:1027300002F02AFE452002F027FE002002F024FECF
:10274000432002F021FE002002F01EFE442002F091
:102750001BFE002002F018FEE72002F01BFE3220D4
:1027600002F012FE002002F00FFE552002F00CFED7
:10277000002002F009FE762002F006FE002002F0A2
:1027800003FE662002F000FE002002F0FDFD67203F
:1027900002F0FAFD002002F0F7FD672002F0F4FDE0
:1027A000002002F0F1FD872002F0EEFD002002F093
:1027B000EBFD992002F0E8FD002002F0E5FDBB20D2
:1027C00002F0E2FD002002F0DFFD992002F0DCFDC6
:1027D000002002F0D9FD772002F0D6FD002002F0A3
:1027E000D3FD442002F0D0FD002002F0CDFD5620A4
:1027F00002F0CAFD002002F0C7FD232002F0C4FD54
:10280000002002F0C1FD332002F0BEFD002002F0E6
:10281000BBFD452002F0B8FD002002F0B5FDE82028
:1028200002F0B8FD002002F0AFFD002002F0ACFD88
:10283000992002F0A9FD002002F0A6FD872002F0F9
:10284000A3FD002002F0A0FD882002F09DFD0020E5
:1028500002F09AFD772002F097FD002002F094FD2F
:10286000662002F091FD002002F08EFD882002F02B
:102870008BFD002002F088FDAA2002F085FD0020DB
:1028800002F082FDBB2002F07FFD002002F07CFD03
:10289000992002F079FD002002F076FD662002F01A
:1028A00073FD002002F070FD552002F06DFD002048
:1028B00002F06AFD552002F067FD002002F064FD81
:1028C000442002F061FD002002F05EFD442002F091
:1028D0005BFD002002F058FD552002F055FD002060
:1028E00002F052FDE92002F055FDAA2002F04CFD55
:1028F000002002F049FD002002F046FD002002F019
:1029000043FD002002F046FDAA2002F03DFDCF204D
:1029100002F040FD002002F037FD002002F034FDFF
:10292000002002F031FD002002F02EFD002002F018
:102930002BFD002002F028FD002002F025FD0020E4
:1029400002F022FD002002F01FFD002002F01CFD1D
:10295000002002F019FD002002F016FD002002F018
:1029600013FD002002F010FD002002F00DFD0020FC
:1029700002F00AFD002002F007FDF02002F00AFD3F
:10298000002002F001FD502002F0FEFC002002F0C9
:10299000FBFC002002F0F8FC002002F0F5FCF32024
:1029A00002F0F8FC002002F0EFFCF92002F0F2FC4B
:1029B000062002F0E9FC102002F0E6FC292002F0DB
:1029C000E3FC002002F0E0FC3A2002F0E3FC55209A
:1029D00002F0DAFC112002F0DDFC642004F0BCFC03
:1029E000292002F0D7FC352002F0D4FC002002F0B0
:1029F000CBFC512002F0CEFCFF2002F0C5FC53209E
:102A000002F0C8FC2C2002F0BFFC552002F0C2FCF2
:102A1000822002F0B9FC2C2002F0BCFC02F0E9B8E4
:102A2000FE48808845F2105188427DD155214FF4EF
:102A3000704002F0BFFCAA214FF2010002F0BAFC84
:102A400052214FF2020002F0B5FC08214FF20300C0
:102A500002F0B0FC01214FF2040002F0ABFC0D21AA
:102A60004FF4304002F0A6FC0D214BF2010002F0C1
:102A7000A1FC0D214BF2020002F09CFC34214FF42A
:102A8000364002F097FC34214BF2016002F092FCD8
:102A900034214BF2026002F08DFC0D214FF43140E5
:102AA00002F088FC0D214BF2011002F083FC0D2195
:102AB0004BF2021002F07EFC34214FF4374002F05A
:102AC00079FC34214BF2017002F074FC34214BF29A
:102AD000027002F06FFC00214FF4324002F06AFCF9
:102AE00000214BF2012002F065FC00214BF2022094
:102AF00002F060FC24214FF4384002F05BFC2421FA
:102B00004BF6010002F056FC24214BF6020002F0C5
:102B100051FC01214FF43F4002F04CFC0F214FF4D7
:102B2000334002F047FC00E0FDE30F214BF201309F
:102B300002F040FC0F214BF2023002F03BFC34214A
:102B40004FF4394002F036FC34214BF6011002F00C
:102B500031FC34214BF6021002F02CFC08214FF41A
:102B6000354002F027FC08214BF2015002F022FC14
:102B700008214BF2025002F01DFC03214FF44240A9
:102B800002F018FC24214FF43A4002F013FC2421F7
:102B90004BF6012002F00EFC24214BF6022002F03D
:102BA00009FC00214FF43C4002F004FC78214BF674
:102BB000014002F0FFFB00214BF6024002F0FAFB5D
:102BC00000214FF43D4002F0F5FB78214BF6015017
:102BD00002F0F0FB00214BF6025002F0EBFB00216B
:102BE0004FF43E4002F0E6FB64214BF6016002F038
:102BF000E1FB00214FF4514002F0DCFB33214DF2A8
:102C0000011002F0D7FB00214DF2021002F0D2FBBE
:102C100034214DF2031002F0CDFB00214DF20410DF
:102C200002F0C8FB3A214DF2051002F0C3FB00216F
:102C30004DF2061002F0BEFB4A214DF2071002F0E1
:102C4000B9FB00214DF2081002F0B4FB5C214DF2FB
:102C5000091002F0AFFB00214DF20A1002F0AAFBAE
:102C600081214DF20B1002F0A5FB00214DF20C105A
:102C700002F0A0FBA6214DF20D1002F09BFB0021FB
:102C80004DF20E1002F096FBE5214DF20F1002F00E
:102C900091FB01214DF2101002F08CFB13214DF23B
:102CA000111002F087FB01214DF2121002F082FB9D
:102CB00054214DF2131002F07DFB01214DF214104E
:102CC00002F078FB82214DF2151002F073FB012116
:102CD0004DF2161002F06EFBCA214DF2171002F0F1
:102CE00069FB02214DF2181002F064FB00214DF245
:102CF000191002F05FFB02214DF21A1002F05AFB8C
:102D000001214DF21B1002F055FB02214DF21C1067
:102D100002F050FB34214DF21D1002F04BFB02215A
:102D20004DF21E1002F046FB67214DF21F1002F01B
:102D300041FB02214DF2201002F03CFB84214DF2B8
:102D4000211002F037FB02214DF2221002F032FB7B
:102D5000A4214DF2231002F02DFB02214DF224108C
:102D600002F028FBB7214DF2251002F023FB0221CF
:102D70004DF2261002F01EFBCF214DF2271002F07B
:102D800019FB02214DF2281002F014FBDE214DF256
:102D9000291002F00FFB02214DF22A1002F00AFB6B
:102DA000F2214DF22B1002F005FB02214DF22C1006
:102DB00002F000FBFE214DF22D1002F0FBFA032180
:102DC0004DF22E1002F0F6FA10214DF22F1002F003
:102DD000F1FA03214DF2301002F0ECFA33214DF2FA
:102DE000311002F0E7FA03214DF2321002F0E2FA5C
:102DF0006D214DF2331002F0DDFA00214FF4524004
:102E000002F0D8FA33214DF2012002F0D3FA00216A
:102E10004DF2022002F0CEFA342101E0AC02002093
:102E20004DF2032002F0C6FA00214DF2042002F018
:102E3000C1FA3A214DF2052002F0BCFA00214DF210
:102E4000062002F0B7FA4A214DF2072002F0B2FA4A
:102E500000214DF2082002F0ADFA5C214DF209206C
:102E600002F0A8FA00214DF20A2002F0A3FA812113
:102E70004DF20B2002F09EFA00214DF20C2002F0E0
:102E800099FAA6214DF20D2002F094FA00214DF29C
:102E90000E2002F08FFAE5214DF20F2002F08AFA9F
:102EA00001214DF2102002F085FA13214DF211207C
:102EB00002F080FA01214DF2122002F07BFA542137
:102EC0004DF2132002F076FA01214DF2142002F0A7
:102ED00071FA82214DF2152002F06CFA01214DF2B7
:102EE000162002F067FACA214DF2172002F062FAAA
:102EF00002214DF2182002F05DFA00214DF2192056
:102F000002F058FA02214DF21A2002F053FA012180
:102F10004DF21B2002F04EFA02214DF21C2002F06D
:102F200049FA34214DF21D2002F044FA02214DF2FB
:102F30001E2002F03FFA67214DF21F2002F03AFAFC
:102F400002214DF2202002F035FA84214DF2212099
:102F500002F030FA02214DF2222002F02BFAA421D5
:102F60004DF2232002F026FA02214DF2242002F035
:102F700021FAB7214DF2252002F01CFA02214DF270
:102F8000262002F017FACF214DF2272002F012FA84
:102F900002214DF2282002F00DFADE214DF2292007
:102FA00002F008FA02214DF22A2002F003FAF2217F
:102FB0004DF22B2002F0FEF902214DF22C2002F0FE
:102FC000F9F9FE214DF22D2002F0F4F903214DF222
:102FD0002E2002F0EFF910214DF22F2002F0EAF935
:102FE00003214DF2302002F0E5F933214DF231207A
:102FF00002F0E0F903214DF2322002F0DBF96D21FD
:103000004DF2332002F0D6F900214FF4534002F084
:10301000D1F933214DF2013002F0CCF900214DF20B
:10302000023002F0C7F934214DF2033002F0C2F948
:1030300000214DF2043002F0BDF93A214DF2053085
:1030400002F0B8F900214DF2063002F0B3F94A213E
:103050004DF2073002F0AEF900214DF2083002F0D7
:10306000A9F95C214DF2093002F0A4F900214DF2DA
:103070000A3002F09FF981214DF20B3002F09AF9EB
:1030800000214DF20C3002F095F9A6214DF20D30E1
:1030900002F090F900214DF20E3002F08BF9E5219B
:1030A0004DF20F3002F086F901214DF2103002F09E
:1030B00081F913214DF2113002F07CF901214DF21A
:1030C000123002F077F954214DF2133002F072F908
:1030D00001214DF2143002F06DF982214DF21530CC
:1030E00002F068F901214DF2163002F063F9CA21AD
:1030F0004DF2173002F05EF902214DF2183002F065
:1031000059F900214DF2193002F054F902214DF223
:103110001A3002F04FF901214DF21B3002F04AF94A
:1031200002214DF21C3002F045F934214DF21D30E0
:1031300002F040F902214DF21E3002F03BF9672106
:103140004DF21F3002F036F902214DF2203002F02C
:1031500031F984214DF2213002F02CF902214DF297
:10316000223002F027F9A4214DF2233002F022F997
:1031700002214DF2243002F01DF9B7214DF2253025
:1031800002F018F902214DF2263002F013F9CF2196
:103190004DF2273002F00EF902214DF2283002F0F4
:1031A00009F9DE214DF2293002F004F902214DF235
:1031B0002A3002F0FFF8F2214DF22B3002F0FAF83B
:1031C00002214DF22C3002F0F5F8FE214DF22D30A7
:1031D00002F0F0F803214DF22E3002F0EBF810214E
:1031E0004DF22F3002F0E6F803214DF2303002F0BC
:1031F000E1F833214DF2313002F0DCF803214DF2D9
:10320000323002F0D7F86D214DF2333002F0D2F8AF
:1032100000214FF4544002F0CDF833214DF201402B
:1032200002F0C8F800214DF2024002F0C3F8342148
:103230004DF2034002F0BEF800214DF2044002F0CE
:10324000B9F83A214DF2054002F0B4F800214DF2F0
:10325000064002F0AFF84A214DF2074002F0AAF80A
:1032600000214DF2084002F0A5F85C214DF2094022
:1032700002F0A0F800214DF20A4002F09BF88121F3
:103280004DF20B4002F096F800214DF20C4002F096
:1032900091F8A6214DF20D4002F08CF800214DF27C
:1032A0000E4002F087F8E5214DF20F4002F082F85F
:1032B00001214DF2104002F07DF813214DF2114032
:1032C00002F078F801214DF2124002F073F8542117
:1032D0004DF2134002F06EF801214DF2144002F05D
:1032E00069F882214DF2154002F064F801214DF297
:1032F000164002F05FF8CA214DF2174002F05AF86A
:1033000002214DF2184002F055F800214DF219400B
:1033100002F050F802214DF21A4002F04BF8012160
:103320004DF21B4000E006E302F044F802214DF2AA
:103330001C4002F03FF834214DF21D4002F03AF8F3
:1033400002214DF21E4002F035F867214DF21F4078
:1033500002F030F802214DF2204002F02BF88421D7
:103360004DF2214002F026F802214DF2224002F0F7
:1033700021F8A4214DF2234002F01CF802214DF265
:10338000244002F017F8B7214DF2254002F012F860
:1033900002214DF2264002F00DF8CF214DF22740D8
:1033A00002F008F802214DF2284002F003F8DE2175
:1033B0004DF2294001F0FEFF02214DF22A4001F0BA
:1033C000F9FFF2214DF22B4001F0F4FF02214DF202
:1033D0002C4001F0EFFFFE214DF22D4001F0EAFFFD
:1033E00003214DF22E4001F0E5FF10214DF22F4058
:1033F00001F0E0FF03214DF2304001F0DBFF33210B
:103400004DF2314001F0D6FF03214DF2324001F080
:10341000D1FF6D214DF2334001F0CCFF00214FF47C
:10342000554001F0C7FF33214DF2015001F0C2FFBA
:1034300000214DF2025001F0BDFF34214DF2035046
:1034400001F0B8FF00214DF2045001F0B3FF3A2122
:103450004DF2055001F0AEFF00214DF2065001F093
:10346000A9FF4A214DF2075001F0A4FF00214DF2BF
:10347000085001F09FFF5C214DF2095001F09AFFC6
:1034800000214DF20A5001F095FF81214DF20B50C1
:1034900001F090FF00214DF20C5001F08BFFA621AE
:1034A0004DF20D5001F086FF00214DF20E5001F05B
:1034B00081FFE5214DF20F5001F07CFF01214DF21B
:1034C000105001F077FF13214DF2115001F072FFFF
:1034D00001214DF2125001F06DFF54214DF21350B5
:1034E00001F068FF01214DF2145001F063FF8221C9
:1034F0004DF2155001F05EFF01214DF2165001F022
:1035000059FFCA214DF2175001F054FF02214DF22C
:10351000185001F04FFF00214DF2195001F04AFF01
:1035200002214DF21A5001F045FF01214DF21B50CE
:1035300001F040FF02214DF21C5001F03BFF34210D
:103540004DF21D5001F036FF02214DF21E5001F0E8
:1035500031FF67214DF21F5001F02CFF02214DF287
:10356000205001F027FF84214DF2215001F022FF6D
:1035700002214DF2225001F01DFFA4214DF22350F3
:1035800001F018FF02214DF2245001F013FFB72182
:103590004DF2255001F00EFF02214DF2265001F0B0
:1035A00009FFCF214DF2275001F004FF02214DF217
:1035B000285001F0FFFEDE214DF2295001F0FAFE05
:1035C00002214DF22A5001F0F5FEF2214DF22B506E
:1035D00001F0F0FE02214DF22C5001F0EBFEFE2135
:1035E0004DF22D5001F0E6FE03214DF22E5001F078
:1035F000E1FE10214DF22F5001F0DCFE03214DF2CF
:10360000305001F0D7FE33214DF2315001F0D2FE9F
:1036100003214DF2325001F0CDFE6D214DF23350B9
:1036200001F0C8FE00214FF4564001F0C3FE3321E3
:103630004DF2016001F0BEFE00214DF2026001F08A
:10364000B9FE34214DF2036001F0B4FE00214DF2C9
:10365000046001F0AFFE3A214DF2056001F0AAFED0
:1036600000214DF2066001F0A5FE4A214DF20760EF
:1036700001F0A0FE00214DF2086001F09BFE5C21EC
:103680004DF2096001F096FE00214DF20A6001F052
:1036900091FE81214DF20B6001F08CFE00214DF274
:1036A0000C6001F087FEA6214DF20D6001F082FE54
:1036B00000214DF20E6001F07DFEE5214DF20F601C
:1036C00001F078FE01214DF2106001F073FE13212C
:1036D0004DF2116001F06EFE01214DF2126001F019
:1036E00069FE54214DF2136001F064FE01214DF298
:1036F000146001F05FFE82214DF2156001F05AFE68
:1037000001214DF2166001F055FECA214DF21760FD
:1037100001F050FE02214DF2186001F04BFE002135
:103720004DF2196001F046FE02214DF21A6001F0DF
:1037300041FE01214DF21B6001F03CFE02214DF2E1
:103740001C6001F037FE34214DF21D6001F032FEA5
:1037500002214DF21E6001F02DFE67214DF21F6027
:1037600001F028FE02214DF2206001F023FE8421A9
:103770004DF2216001F01EFE02214DF2226001F0A7
:1037800019FEA4214DF2236001F014FE02214DF236
:10379000246001F00FFEB7214DF2256001F00AFE12
:1037A00002214DF2266001F005FECF214DF2276087
:1037B00001F000FE02214DF2286001F0FBFDDE2148
:1037C0004DF2296001F0F6FD02214DF22A6001F070
:1037D000F1FDF2214DF22B6001F0ECFD02214DF2E2
:1037E0002C6001F0E7FDFE214DF22D6001F0E2FDBD
:1037F00003214DF22E6001F0DDFD10214DF22F600E
:1038000001F0D8FD03214DF2306001F0D3FD3321EA
:103810004DF2316001F0CEFD03214DF2326001F036
:10382000C9FD6D214DF2336001F0C4FD55214FF407
:10383000704001F0BFFDAA214FF2010001F0BAFD76
:1038400052214FF2020001F0B5FD08214FF20300B2
:1038500001F0B0FD00214FF2040001F0ABFDCC21DE
:103860004FF4314001F0A6FD00214BF2011001F0B0
:10387000A1FD05214FF4364001F09CFD70214FF46D
:10388000374001F097FD70214BF2017001F092FD7D
:1038900001214FF4384001F08DFD03214BF601006A
:1038A00001F088FD03214BF6020001F083FD0321A6
:1038B0004BF6030001F07EFD02214FF43C4001F085
:1038C00079FD00214BF6014001F074FD00214BF61B
:1038D000024001F06FFDD0214FF4494001F06AFD34
:1038E00002214CF6011001F065FD50214CF602104A
:1038F00001F060FD50214CF6031001F05BFD5021FA
:103900004CF6041001F056FD00214FF4545001F024
:1039100051FD55214FF4685001F04CFD4FF4885093
:1039200001F038FD782003F035FD4FF4245001F00C
:1039300031FD01F05EB9FE48808849F225318842A8
:103940007ED147F6F001E52001F034FD4FF480719F
:10395000012001F02FFD4FF4E061022001F02AFD6B
:1039600041F23001032001F025FD0021042001F087
:1039700021FD40F20221082001F01CFD0021092058
:1039800001F018FD00210A2001F014FD00210C2097
:1039900001F010FD00210D2001F00CFD00210F2091
:1039A00001F008FD0021102001F004FD0721112085
:1039B00001F000FD0021122001F0FCFC0021132089
:1039C00001F0F8FC0021072001F0F4FC41F29061C5
:1039D000102001F0EFFC40F22721112001F0EAFC59
:1039E0009D21122001F0E6FC4FF4C851132001F094
:1039F000E1FC2521292001F0DDFC0D212B2001F027
:103A0000D9FC0721302001F0D5FC40F203313120F0
:103A100001F0D0FC0321322001F0CCFC40F2062161
:103A2000352001F0C7FC0821362001F0C3FC40F22C
:103A30000641372001F0BEFC4FF44171382000E010
:103A400057E001F0B7FC0721392001F0B3FC40F248
:103A500002613C2001F0AEFC08213D2001F0AAFCEF
:103A60000021502001F0A6FCEF21512001F0A2FC22
:103A70000021522001F09EFC40F23F11532001F042
:103A800099FC4FF42741602001F094FC0121612052
:103A900001F090FC00216A2001F08CFC00218020C4
:103AA00001F088FC0021812001F084FC00218220AB
:103AB00001F080FC0021832001F07CFC00218420A7
:103AC00001F078FC0021852001F074FC1021902089
:103AD00001F070FC4FF4C061922001F06BFC40F2E9
:103AE0003311072001F066FC2221002001F062FC66
:103AF0001FE78F48808849F2283188427ED141F201
:103B00008F01EC2001F056FC41F23421EF2001F04E
:103B100051FC4FF48071012001F04CFC4FF4E06146
:103B2000022001F047FC41F23001032001F042FC89
:103B30000021042001F03EFC40F20221082001F0A7
:103B400039FC0021092001F035FC00210A2001F098
:103B500031FC01210C2001F02DFC00210D2001F091
:103B600029FC00210F2001F025FC0021102001F08C
:103B700021FC0721112001F01DFC0021122001F081
:103B800019FC0021132001F015FC0121072001F090
:103B900011FC322003F0E0FB41F29041102001F0D3
:103BA00009FC40F22721112001F004FC322003F02F
:103BB000D3FB8A21122001F0FDFB322003F0CCFB65
:103BC0004FF4D051132001F0F5FB0621292001F01C
:103BD000F1FB0D212B2001F0EDFB322003F0BCFBAB
:103BE0000021202001F0E6FB0021212001F0E2FB72
:103BF000322003F0B1FB0021302000E074E001F03E
:103C0000D9FB40F20461312001F0D4FB40F20531D0
:103C1000322001F0CFFB0021352001F0CBFB40F634
:103C20000941362001F0C6FB4FF40171372001F045
:103C3000C1FB40F20131382001F0BCFB40F20771BA
:103C4000392001F0B7FB00213C2001F0B3FB40F626
:103C50000A213D2001F0AEFB322003F07DFB002164
:103C6000502001F0A7FBEF21512001F0A3FB002120
:103C7000522001F09FFB40F23F11532001F09AFBCC
:103C80004FF42741602001F095FB0121612001F0F4
:103C900091FB00216A2001F08DFB0021802001F0C2
:103CA00089FB0021812001F085FB0021822001F0A9
:103CB00081FB0021832001F07DFB0021842001F0A5
:103CC00079FB0021852001F075FB1021902001F087
:103CD00071FB4FF4C061922001F06CFB40F2331194
:103CE000072001F067FB24E61148808849F2203163
:103CF00088427DD10021084601F05CFB4FF48071C1
:103D0000012001F057FB4FF4E061022001F052FB6B
:103D100041F23001032001F04DFB0021042001F0AD
:103D200049FB40F20221082001F044FB002101E0A0
:103D3000AC020020092001F03DFB00210A2001F027
:103D400039FB01210C2001F035FB00210D2001F091
:103D500031FB00210F2001F02DFB322003F0FCFA93
:103D600040F20111072001F025FB322003F0F4FAA4
:103D70004FF48651102001F01DFB0721112001F0A6
:103D800019FB4FF48871122001F014FB4FF43061DD
:103D9000132001F00FFB0021292001F00BFB44F25E
:103DA00010012B2001F006FB0021502001F002FB46
:103DB000EF21512001F0FEFA0021522001F0FAFA21
:103DC00040F23F11532001F0F5FA4FF41C516020EE
:103DD00001F0F0FA0121612001F0ECFA00216A20E3
:103DE00001F0E8FA0021802001F0E4FA002100E06F
:103DF00031E0812001F0DEFA0021822001F0DAFAC0
:103E00000021832001F0D6FA0021842001F0D2FAAB
:103E10000021852001F0CEFA1021902001F0CAFA8D
:103E20000021922001F0C6FA0121932001F0C2FA8C
:103E30004FF48871952001F0BDFA0021972001F020
:103E4000B9FA0021982001F0B5FA40F27311072069
:103E500001F0B0FA6DE5FE48808849F231318842C0
:103E60007DD141F21401E72001F0A4FA4FF48071F2
:103E7000012001F09FFA4FF40071022001F09AFA3C
:103E800041F23801032001F095FA40F202210820A6
:103E900001F090FA0021092001F08CFA00210A209B
:103EA00001F088FA00210C2001F084FA00210D2095
:103EB00001F080FA00210F2001F07CFA002110208F
:103EC00001F078FA0721112001F074FA0021122084
:103ED00001F070FA0021132001F06CFAC82003F001
:103EE0003BFA41F29061102001F064FA40F2272180
:103EF000112001F05FFA322003F02EFA0C2112207B
:103F000001F058FA322003F027FA4FF40061132031
:103F100001F050FA1121292001F04CFA0B212B203D
:103F200001F048FA322003F017FA0021202001F0B6
:103F300041FA40F23F11212001F03CFA00213020EB
:103F400001F038FA4FF48371312001F033FA002187
:103F5000322001F02FFA4FF40171352000E064E0C7
:103F600001F028FA41F20A61362001F023FA40F20A
:103F70000771372001F01EFA4FF48371382001F0E9
:103F800019FA40F20771392001F014FA40F20241A7
:103F90003C2001F00FFA40F60F413D2001F00AFAF3
:103FA0000021502001F006FAEF21512001F002FA21
:103FB0000021522001F0FEF940F23F11532001F0A0
:103FC000F9F94FF41C51602001F0F4F9012161204E
:103FD00001F0F0F900216A2001F0ECF900218020C5
:103FE00001F0E8F90021812001F0E4F900218220AC
:103FF00001F0E0F90021832001F0DCF900218420A8
:1040000001F0D8F90021852001F0D4F91021902089
:1040100001F0D0F94FF4C061922001F0CBF940F2E9
:104020003311072001F0C6F983E48948808845F2FE
:10403000084188427ED14FF48071012001F0BAF925
:104040004FF4E061022001F0B5F941F230010320A4
:1040500001F0B0F90021042001F0ACF940F2072191
:10406000082001F0A7F90021092001F0A3F900219F
:104070000A2001F09FF900210C2001F09BF900219A
:104080000D2001F097F900210F2001F093F9142081
:1040900003F062F941F2B061102001F08BF90121C7
:1040A000112001F087F90121172001F083F94FF465
:1040B0009C71122001F07EF94FF40061132001F091
:1040C00079F90921292001F075F909212A2001F047
:1040D00071F90021A42001F06DF90021502001F0B8
:1040E00069F9EF21512001F065F90021522001F01A
:1040F00061F940F23F11532001F05CF94FF41C517B
:10410000602001F057F90121612001F053F90021ED
:104110006A2001F04FF90021802001F04BF90021C5
:10412000812001F047F90021822001F043F90021AC
:10413000832000E023E001F03DF90021842001F01C
:1041400039F90021852001F035F91321902001F083
:1041500031F90021922001F02DF90321932001F083
:1041600029F94FF48871952001F024F940F2731178
:10417000072001F01FF9322003F0EEF8B8E43448CC
:10418000808841F2055188427ED10021072001F04C
:1041900011F9322003F0E0F84FF48E71122001F093
:1041A00009F90121A42001F005F90F21082001F0EF
:1041B00001F908210A2001F0FDF808210D2001F085
:1041C000F9F840F20771302001F0F4F807213120AE
:1041D00001F0F0F840F20361322001F0EBF84FF407
:1041E000E061332001F0E6F840F20221342001F0D2
:1041F000E1F80221352001F0DDF841F60F7136209B
:1042000001F0D8F840F20771372001F0D3F800210F
:10421000382001F0CFF80021392001F0CBF840F22E
:1042200007713A2001F0C6F800213B2001F0C2F8E6
:1042300007213C2001F0BEF800213D2001F0BAF832
:10424000322003F089F80121072001F0B3F801E0E2
:10425000AC0200200121172001F0ACF8322003F05D
:104260007BF84FF4BD51102001F0A4F840F2172163
:10427000112001F09FF84FF48F71122001F09AF88D
:104280004FF47061132000E097E001F093F80021F3
:104290002A2001F08FF80A21292001F08BF84FF431
:1042A0009F71122001F086F80021502001F082F861
:1042B000EF21512001F07EF80021522001F07AF820
:1042C00040F23F11532001F075F84FF41C5160206B
:1042D00001F070F80121612001F06CF800216A20E2
:1042E00001F068F80021802001F064F800218120AD
:1042F00001F060F80021822001F05CF800218320A9
:1043000001F058F80021842001F054F800218520A4
:1043100001F050F81321902001F04CF84FF4407157
:10432000922001F047F80521932001F043F8002185
:10433000952001F03FF80021972001F03BF8002183
:10434000982001F037F84FF48071012001F032F825
:104350004FF4E061022001F02DF841F23801032012
:1043600001F028F80021042001F024F800210C209D
:1043700001F020F800210F2001F01CF8002120207E
:1043800001F018F80021212001F014F82121072064
:1043900001F010F8142002F0DFFF6121072001F086
:1043A00009F8142002F0D8FF40F27311072001F041
:1043B00001F8142002F0D0FF95E4FE4880884BF20B
:1043C000055188427ED10021084600F0F3FF00210C
:1043D000084600F0EFFF0021084600F0EBFF002147
:1043E000084600F0E7FF0121A42000F0E3FF1420BD
:1043F00002F0B2FF4FF41C51602000F0DBFF40F2EE
:104400000221082000F0D6FF4FF40571302000F0A3
:10441000D1FF43F21571312000F0CCFF40F204616E
:10442000322000F0C7FF40F61661332000F0C2FFD3
:1044300042F21121342000F0BDFF4FF4A851352085
:1044400000F0B8FF48F20751362000F0B3FF41F208
:104450000741372000F0AEFF41F20341382000F061
:10446000A9FF2021392000F0A5FF1A21902000F09B
:10447000A1FF0021102000F09DFF0721112000F076
:1044800099FF0021122000F095FF0021132000F079
:1044900091FF142002F060FF4FF4E661102000F05D
:1044A00089FF40F23711112000F084FF142002F040
:1044B00053FF4FF4DC71122000F07CFF142002F057
:1044C0004BFF00E083E04FF47061132000F072FFB7
:1044D00080212A2000F06EFF4821292000F06AFF89
:1044E000142002F039FF4FF48071012000F062FFC8
:1044F0004FF4E061022000F05DFF41F2380103203B
:1045000000F058FF40F20221082000F053FF002184
:104510000A2000F04FFF00210C2000F04BFF00218B
:104520000D2000F047FF30210E2000F043FF002156
:10453000502000F03FFFEF21512000F03BFF002111
:10454000522000F037FF40F23F11532000F032FFBD
:104550004FF41C51602000F02DFF0121612000F07C
:1045600029FF00216A2000F025FF1121902000F092
:1045700021FF4FF4C061922000F01CFF40F2024185
:10458000932000F017FF0221942000F013FF142065
:1045900002F0E2FE0121072000F00CFF142002F0DF
:1045A000DBFE6121072000F005FF40F273110720B8
:1045B00000F000FF0021202000F0FCFE002121205F
:1045C00000F0F8FE2221002000F0F4FE11E379480B
:1045D00080884CF2055188427ED10021084600F0C7
:1045E000E9FE0021084600F0E5FE142002F0B4FECA
:1045F0000021084600F0DEFE0021084600F0DAFE49
:104600000021084600F0D6FE0021084600F0D2FE48
:104610000121A42000F0CEFE142002F09DFE4FF4F4
:104620001C51602000F0C6FE40F60601082000F094
:10463000C1FE40F20371302000F0BCFE01213120A8
:1046400000F0B8FE0421322000F0B4FE4FF4817176
:10465000332000F0AFFE4FF44071342000F0AAFE8A
:1046600040F20311352000F0A5FE1F21362000F096
:10467000A1FE40F20371372000F09CFE012138209A
:1046800000F098FE0421392000F094FE15219020BE
:1046900000F090FE4FF48261102000F08BFE40F29B
:1046A0004721112000F086FE4FF4DE71122000F049
:1046B00081FE4FF46061132000F07CFE782002F050
:1046C0004BFE4FF48071012000F074FE4FF4007136
:1046D000022000F06FFE00E050E041F230010320C4
:1046E00000F068FE08210A2000F064FE00210C2082
:1046F00000F060FE20210E2000F05CFE00210F2063
:1047000000F058FE0021202000F054FE002121205E
:1047100000F050FE3D212A2000F04CFE142002F053
:104720001BFE2D21292000F045FE0021502000F025
:1047300041FE4DF2EF01512000F03CFE00215220DD
:1047400000F038FE40F23F11532000F033FE00210C
:10475000612000F02FFE00216A2000F02BFE4FF4B4
:104760004071922000F026FE0521932000F022FEE9
:104770004FF48071072000F01DFE3AE20D4880885A
:1047800044F2315188427CD10121002000F012FE18
:104790000A2002F0E1FD41F22861102000F00AFE3B
:1047A0000E21122000F006FE40F63921132000F001
:1047B00001FE01E0AC0200200A2002F0CDFD402104
:1047C000112000F0F7FD5021152000F0F3FD0A2024
:1047D00002F0C2FD1E21122000F0ECFD0A2002F0C2
:1047E000BBFD4FF4B151102000F0E4FD42F6392139
:1047F000132000F0DFFD0A2002F0AEFD4FF48071BF
:10480000012000F0D7FD4FF44071022000F0D2FDEE
:1048100041F23801032000F0CDFD40F202210820D2
:1048200000F0C8FD08210A2000F0C4FD002130205E
:1048300000F0C0FD40F20241312000F0BBFD4FF41A
:104840008371322000F0B6FD40F20351332000F0B6
:10485000B1FD4FF48271342000F0ACFD40F2013123
:10486000352000F0A7FD40F20771362000F0A2FDD0
:1048700040F20531372000F09DFD4FF402713820E1
:1048800000E040E000F096FD40F60B71392000F0AA
:1048900091FD0221412000F08DFD4FF41C5160205C
:1048A00000F088FD0121612000F084FD4FF40471C7
:1048B000902000F07FFD4FF48571922000F07AFD8A
:1048C0000421932000F076FD4FF48071A02000F0C9
:1048D00071FD0121072000F06DFD2121072000F06E
:1048E00069FD2321072000F065FD3321072000F03A
:1048F00061FD40F23311072000F05CFD0021A02093
:1049000000F058FD75E1C048808844F23551884276
:104910007ED13021152000F04DFD10219A2000F0AD
:1049200049FD2021112000F045FD43F228411020CF
:1049300000F040FD0221122000F03CFD41F2380160
:10494000132000F037FD282002F006FD1221084652
:1049500000F030FD282002F0FFFC43F2204110203F
:1049600000F028FD43F23801132000F023FD46201B
:1049700002F0F2FC0021302000F01CFD40F2024168
:10498000312000F017FD40F20731322000F012FD17
:104990004FF44171332000F00DFD0421342000F06C
:1049A00009FD40F20141352000F004FD40F207719D
:1049B000362000F0FFFC40F20531372000F0FAFC11
:1049C0004FF4C261382000F0F5FC4FF4C261392089
:1049D00000F0F0FC4FF48071012000F0EBFC4FF48C
:1049E0004071022000F0E6FC41F23001032000F0AB
:1049F000E1FC40F60801082000F0DCFC08210A2058
:104A000000F0D8FC4FF41C51602000F0D3FC00E013
:104A100031E00121612000F0CDFC4FF49F71902026
:104A200000F0C8FC4FF48071922000F0C3FC4FF4FA
:104A30008071932000F0BEFC4FF44051A02000F0A4
:104A4000B9FC1021A32000F0B5FC0121072000F0E3
:104A5000B1FC2121072000F0ADFC2321072000F04C
:104A6000A9FC3321072000F0A5FC40F233110720F8
:104A700000F0A0FCBDE06448808841F663118842E4
:104A8000F8D1E22000F086FC1D2000F07DFC022021
:104A900000F07AFC042000F077FC642002F07AFC3D
:104AA000E02000F077FC012000F06EFC0A2002F00C
:104AB00053FCE02000F06EFC032000F065FC0C20AD
:104AC00002F04AFC012000F065FC0A2002F044FCE0
:104AD000E62000F05FFC2F2000F056FCFF2000F0E5
:104AE00053FCFF2000F050FCB02000F053FC2020CD
:104AF00000F04AFC002000F047FC032000F044FCDA
:104B000040F21F3000F040FC012000F03DFC40F27C
:104B1000DF1000F039FC002000F036FCB42000F07B
:104B200039FC042000F030FC40F21F4000F02CFC67
:104B3000002000F029FC2E2000F026FC002000F0D0
:104B400023FC002000F020FC002000F01DFC0020D1
:104B500000F01AFCB62000F01DFC022000F014FC4E
:104B60004FF4037000F010FC002000F00DFC172043
:104B700000F00AFC152000F007FC002000F004FC07
:104B8000002000F001FCF02000F004FC032000F005
:104B9000FBFB292000F0FEFBD02000F0FBFB0020F7
:104BA00000F0F2FBBE2000F0F5FB052000F0ECFB6E
:104BB000FE2000F0E9FB012000F0E6FB002000F001
:104BC000E3FB002000F0E0FB002000F0DDFBB8205C
:104BD00000F0E0FB032000F0D7FB012000F0D4FB45
:104BE000BA2000F0D7FB012000F0CEFB642000F0DB
:104BF00031F80120FCF7B2F90120044908604FF6B2
:104C0000FF70FCF775F910BDAC02002080812142D5
:104C100010B50246012000E050430B00A1F1010451
:104C2000E1B2F9D110BD000008B50348008800903A
:104C3000BDF8000008BD00000008006C10B5044677
:104C4000204600F0A7FB052002F0A4FBFFF7ECFFD5
:104C500010BD00002DE9F0470446BE2000F09AFB8D
:104C6000052000F091FB204609F0B6FE07464FF004
:104C700066320C4B09F000FF054609F069FE1FFA89
:104C800080F9484600F080FB012000F07DFBFF200A
:104C900000F07AFB002000F077FB002000F074FBAE
:104CA000BDE8F0876666044070B504460023002620
:104CB000B748807901280BD1B548808846F60401B1
:104CC000884205D0B248808841F66311884208D1F5
:104CD000AF488079F0B9AE48808841F663118842C8
:104CE00018D1082C15D2DFE804F00406080A0C0ECF
:104CF000101206240DE007240BE0042409E005242B
:104D000007E0012405E0002403E0032401E002247D
:104D100000BF00BF9E48808849F24131884217D0C9
:104D20009B48808846F60401884211D098488088C4
:104D300045F2103188420BD09548808845F21051D9
:104D4000884205D09248808841F6631188427DD11F
:104D5000082C1CD2DFE804F00406090C0F12151809
:104D600000BF14E043F0800311E043F040030EE085
:104D700043F0C0030BE043F0200308E043F060037E
:104D800005E043F0A00302E043F0E00300BF00BFF2
:104D90007F48808845F21051884202D14FF458561E
:104DA00000E036267A48808845F2103188420DD0DE
:104DB0007748808845F21051884207D0744880882F
:104DC00041F66311884201D043F00803704880889F
:104DD00046F60401884201D143F0020319463046E9
:104DE00000F0E8FA6A48808841F6631188421DD0D5
:104DF00003F0200068B16648008865494988884208
:104E000014DA63480588408861490880084645806F
:104E10000CE05F4800885E494988884206DD5C48AE
:104E2000058840885A490880084645805848808847
:104E300045F21051884254D15549488900F0AAFAE8
:104E4000002000F0A1FA5249498900E078E0491CAD
:104E500088B200F09FFA002000F096FA4C49498988
:104E6000891C88B200F096FA49490988491EC1F3A5
:104E70000F2000F089FA46494989C91C88B200F020
:104E800089FA43490978491EC8B200F07DFA4049C1
:104E9000888900F07FFA002000F076FA3C49898981
:104EA000491C88B200F076FA002000F06DFA38490B
:104EB0008989891C88B200F06DFA35494988491EF4
:104EC000C1F30F2000F060FA31498989C91C88B20A
:104ED00000F060FA2E498978491EC8B200F054FAF1
:104EE00055E02B49488900F055FA002000F04CFAB3
:104EF000002000F049FA26490988491EC1F30F2015
:104F000000F042FA22490978491EC8B200F03CFA82
:104F10001F49888900F03EFA002000F035FA002091
:104F200000F032FA1A494988491EC1F30F2000F0F7
:104F30002BFA17498978491EC8B200F025FA26E0F5
:104F4000082C1CD2DFE804F004070A0D0F12151814
:104F500043F0300313E043F0100310E043F020036C
:104F60000DE000BF0BE043F0380308E043F02803F6
:104F700005E043F0180302E043F0080300BF00BF60
:104F8000032643F480531946304600F013FA70BDEF
:104F9000AC02002010B503460C466748808849F2F1
:104FA0004131884205D06448808845F210318842FA
:104FB00014D16149488900F0EDF9181200F0E4F9C4
:104FC000D8B200F0E1F95C49888900F0E3F92012D9
:104FD00000F0DAF9E0B200F0D7F9ABE0564880888B
:104FE00046F6040188421DD153488079012804D136
:104FF00051480088401EC01A83B24F49488900F0CA
:10500000C9F9181200F0C0F9D8B200F0BDF94A4948
:10501000888900F0BFF9201200F0B6F9E0B200F084
:10502000B3F987E04448808841F66311884247D14C
:1050300041488079A8B940480088401EC01A83B210
:105040003D49488900F0A6F9002000F09DF90020B4
:1050500000F09AF9181200F097F9D8B200F094F91C
:1050600016E03549488900F095F9181200F08CF9DE
:10507000D8B200F089F930490988491EC1F30F20E0
:1050800000F082F92C490978491EC8B200F07CF979
:105090002949888900F07EF9201200F075F9E0B204
:1050A00000F072F924494988491EC1F30F2000F02D
:1050B0006BF921498978491EC8B200F065F939E0D9
:1050C0001D48808845F21051884220D11A494889EC
:1050D00000F060F9181200F057F917494989491C86
:1050E00088B200F057F9D8B200F04EF91249888919
:1050F00000F050F9201200F047F90F498989491C46
:1051000088B200F047F9E0B200F03EF912E00A4838
:105110008079012804D108480088401EC01A83B253
:1051200005494889194600F045F90349888921460F
:1051300000F040F910BD0000AC0200202DE9F84F4E
:1051400080460E4617461C46B3462046E31704EB3E
:105150005373DB1021464FEAE47C04EB5C7C4FEA9E
:10516000EC0CA4EBCC0CBCF1000F02D04FF0010C06
:1051700001E04FF0000C6344224604EBD27C4FEA7E
:105180006C0C03FB0CF3DBB20093A7F12000C7B259
:10519000002556E00C2C07D107EB47002B4901EB0B
:1051A000800010F8059013E0102C05D1284800EB82
:1051B000071010F805900BE0182C07D107EBC7007B
:1051C000244901EB800010F8059001E0BDE8F88F5C
:1051D0004FF0000A2FE009F0800030B11E4802882D
:1051E00031464046FCF76EF807E00A9828B91B489C
:1051F000028831464046FCF765F84FEA49604FEABD
:105200001069701C86B216484088B04200DCDDE7A9
:10521000A6EB0B00A0420AD15E4608F101001FFA7E
:1052200080F80F480088404500DCCFE706E00AF12F
:10523000010000F0FF0ABAF1080FCCDB00BF681CC8
:10524000C5B200988542A5DB00BFBFE7DAF80008C9
:105250004EFD00083E0301080A0000200C0000205B
:10526000AC0200202DE9F84704460D4690469946C9
:10527000DDE9096704F0FF0A08EB04001FFA80F873
:1052800009EB05001FFA80F916E0444502DB54469D
:10529000A81985B24D4500DB14E0002000903A7853
:1052A000334629462046FFF749FF304606EBD071CA
:1052B00004EB61018CB27F1C38787E2802DC3878E0
:1052C0002028E2DA00BFBDE8F8872DE9FF4F82B061
:1052D000064692461F46DDE90F4800200190002552
:1052E0004DE0781B401EC1B20A20FFF791FCBAFBCB
:1052F000F0F00A21B0FBF1F201FB1209019850BB5A
:10530000781EA84227DDB9F1000F22D108F08000F5
:1053100078B108F00100A34604EBDB71491001FBF2
:105320000561009088B2234630220399FFF706FFFB
:105330000EE008F00100A34604EBDB71491001FB0D
:105340000561009088B2234620220399FFF7F6FEFC
:1053500013E00120019008F00100A34604EBDB718B
:10536000491001FB0561009088B209F13001CAB211
:1053700023460399FFF7E2FE00BF681CC5B2BD4299
:10538000AFDB06B0BDE8F08F014908807047000030
:105390000008006C0149088070470000FE07006C9F
:1053A000024800890249088070470000AC020020D2
:1053B000FE07006C024A1080921C118070470000AA
:1053C000FE07006C1848806940F0080016498861A3
:1053D0000846806940F0400088611448006820F465
:1053E0007000124908600846006840F440100860E8
:1053F0000E480C30006840F020000C490C31086069
:105400000B48006820F470000949086008460068ED
:1054100040F44010086006480C30006840F020005E
:1054200003490C310860704700100240000C014035
:10543000001801402DE9FC4104460D4616466B4616
:1054400006223B21682000F03EFA0746BFB99DF8CE
:1054500001009DF8001040EA012000B220809DF874
:1054600003009DF8021040EA012000B228809DF858
:1054700005009DF8041040EA012000B23080384653
:10548000BDE8FC812DE9FC4104460D4616466B46FD
:1054900006224321682000F016FA0746BFB99DF89E
:1054A00001009DF8001040EA012000B220809DF824
:1054B00003009DF8021040EA012000B228809DF808
:1054C00005009DF8041040EA012000B23080384603
:1054D000BDE8FC812DE9F84F6B460222412168208E
:1054E00000F0F1F99DF801009DF8001040EA01205C
:1054F0000FFA80FA504609F058FA804600220B4B0A
:1055000009F09EF806460A4A0A4B08F0DDFF0446F9
:1055100008F0A8FF83460849584609F0E9FF044609
:1055200009F04AFF00B2BDE8F88F00000040754066
:10553000A4703D0AD74342400000C84210B5002085
:105540000E4908600E48006820F470400C4908605D
:105550000846006840F44050086000200949C1F83E
:10556000AC0100F011F801200449086000F00CF8CB
:1055700000200449C1F8A80110BD0000A881214203
:10558000040C01400080214210B5022001F002FF0E
:1055900010BD00000C48806940F008000A4988618D
:1055A0000A48006820F47F400849086008460068FF
:1055B00040F44C50086005480830006840F44060F2
:1055C000024908310860704700100240040C014095
:1055D00010B500200E4908600E48006820F47040A5
:1055E0000C4908600846006840F4405008600120FB
:1055F0000949C1F8AC01FFF7C7FF01200449086061
:10560000FFF7C2FF00200449C1F8A80110BD000047
:10561000A8812142040C01400080214270B505465A
:1056200000241648006820F47040144908600846B9
:10563000006840F400400860002614E00020104993
:105640000860FFF7A1FF01200E49C1F8A80160061C
:10565000040E0B487C38006808B1601CC4B2FFF728
:1056600093FF701CC6B2082EE8DB15B9FFF7B0FF38
:1056700001E0FFF763FF204670BD0000040C01400D
:10568000A88121420080214270B50446124800687A
:1056900020F47040104908600846006840F440500B
:1056A000086000200D490860002512E0E0090B4960
:1056B000091D08606006040E01200949C1F8A8010F
:1056C000FFF762FF002005490860FFF75DFF681CD7
:1056D000C5B2082DEADB70BD040C0140A88121424F
:1056E0000080214210B50E48006820F470400C493B
:1056F00008600846006840F44050086001200949ED
:1057000008600949C1F8A801FFF73EFF00200549DC
:105710000860FFF739FF00200349C1F8A80110BD58
:10572000040C0140AC8121420080214210B50E489A
:10573000006820F470400C4908600846006840F496
:10574000405008600020094908600949C1F8AC01CF
:10575000FFF71AFF0120054908600549C1F8AC01AF
:10576000FFF712FF10BD0000040C0140A881214288
:105770000080214210B500241448006820F47040D5
:10578000124908600846006840F4004008600120A3
:105790000F490860FFF7F8FE01200E49C1F8A80183
:1057A000FFF7F2FE07E0601CC4B2FA2C03DDFFF73E
:1057B000BDFF012010BD0648803800680028F2D1E6
:1057C0000349091F086000BFF4E70000040C014012
:1057D000AC8121420080214210B52948806940F007
:1057E0000400274988612748006820F07040254957
:1057F00008600846006840F0405008600120FBF750
:10580000D7FA002020490860FFF7C4FE80216B20F2
:1058100000F0DDF8642001F09FFD00216B2000F016
:10582000D6F8032000F091F8002000F086F80A2056
:1058300000F0B0F80021382000F0C9F800216A20FB
:1058400000F0C5F80021232000F0C1F880213720A6
:1058500000F0BDF8752000F019F80446682C0BD153
:1058600001216B2000F0B3F800216C2000F0AFF8AC
:10587000322000F08FF801E0012010BD0020FCE78D
:105880000010024004080140BC01214270B50446EA
:10589000FFF728FFD020FFF7F7FEFFF76BFF20464A
:1058A000FFF7F2FEFFF766FFFFF71CFFD120FFF7BF
:1058B000EBFEFFF75FFF0020FFF7B0FE0546FFF7A6
:1058C00035FF284670BD2DE9F04106460F461446C7
:1058D0001D46FFF707FF002141EA4601C8B2FFF766
:1058E000D3FEFFF747FF20B1FFF720FF0120BDE8FF
:1058F000F0813846FFF7C8FEFFF73CFFFFF7F2FEE6
:10590000012101EB4601C8B2FFF7BEFEFFF732FFEF
:105910000DE0012C04D10020FFF780FE287003E089
:105920000120FFF77BFE2870601EC4B26D1C002CA6
:10593000EFD1FFF7FBFE0020D9E710B50446E006E3
:10594000010E1C2000F043F810BD10B50446E0061F
:10595000010E1B2000F03BF810BD70B50446002579
:10596000BC2C01DB012510E0622C01DB02250CE0E0
:105970002A2C01DB032508E0142C01DB042504E0BC
:105980000A2C01DB052500E0062529461A2000F037
:105990001EF870BD70B50446B4F57A7F01DD4FF492
:1059A0007A74042C00DA04244FF47A7090FBF4F03B
:1059B000401EC5B22946192000F009F805462646C2
:1059C00004EBD671C1F34F00FFF7C7FF70BD70B590
:1059D00005460C46FFF786FED020FFF755FEFFF781
:1059E000C9FE18B1FFF7A2FE012070BD2846FFF7DF
:1059F0004BFEFFF7BFFE2046FFF746FEFFF7BAFE5D
:105A000018B1FFF793FE0120EFE7FFF78FFE0020AC
:105A1000EBE72DE9F04105460E4617469846FFF79D
:105A200061FE002141EA4501C8B2FFF72DFEFFF7F4
:105A3000A1FE20B1FFF77AFE0120BDE8F0813046DB
:105A4000FFF722FEFFF796FE00240CE018F8040092
:105A5000FFF71AFEFFF78EFE18B1FFF767FE012071
:105A6000EBE7601CC4B2BC42F0DBFFF75FFE002036
:105A7000E3E7000000B5002015490861C860142064
:105A8000486100208861C8610846006840F0010054
:105A90000860084640680F4908400D4948600846BC
:105AA00000680D4908400A4908600846006820F46B
:105AB000802008600846406820F4FE00486000200E
:105AC000886000214FF0006000F058F800BD000031
:105AD000001002400000FFF8FFFFF6FE2DE9F04144
